:020000041000EA
:10000000002008205B0100101B0100101D010010E2
:100010001101001011010010110100101101001058
:100020001901001019010010190100101F01001022
:10003000110100101901001021010010230100100E
:100040001101001011010010110100101101001028
:100050001101001011010010110100101101001018
:100060001101001011010010110100101101001008
:1000700011010010110100101101001011010010F8
:1000800011010010110100101101001011010010E8
:1000900011010010110100101101001011010010D8
:1000A00011010010110100101101001011010010C8
:1000B00011010010110100101101001011010010B8
:1000C00011010010110100101101001011010010A8
:1000D0001101001011010010110100101101001098
:1000E0001101001011010010110100101101001088
:1000F0001101001011010010110100101101001078
:100100001101001011010010110100101101001067
:10011000EFF30580103800BE00BE00BE00BE00BE7A
:1001200000BE00BEF2EB8871C0690010EC690010DF
:100130009C01001090A31AE7D3DEFFFF42012110BB
:10014000FF0100007C7F0000793512AB00201E49C2
:10015000086006C881F3088810474FF050400068D7
:1001600008B10020F3E70DA40ECC002902D000F066
:1001700012F8F9E71549164A002000E001C1914242
:10018000FCD114498847144988471449884700BE60
:10019000FDE701C901C29A42FBD37047EC69001028
:1001A00010010020D8170020B480001000000820A3
:1001B00000000820B4800010001008200010082063
:1001C000000000007047000008ED00E0D817002094
:1001D0002C21002029390010E101001021390010E4
:1001E000F0B52DED028B954C9DB003F0B9FC94E871
:1001F000070008AB83E807000BAD04F10C0207CA47
:1002000085E80700012219460EA800F041FB0028EE
:1002100000F00C819FED8A8A8A4803F0E7FC04AD68
:1002200004F118030FCB07C5874C2B80874D04E0E2
:1002300001210EA800F060FB78BB00210EA800F0A1
:100240005BFB0028F4D0002104AA0EA800F058FBA4
:100250000028EDD1BDF81030B3F5B47F7CD051D873
:10026000B62B00F08180F62B3DD19DF81230052B86
:10027000DED99DF813109DF8182080294FEA52020C
:1002800094BF002101217248283A03F02DFD01217D
:100290000EA800F031FB0028CFD0012104AA0EA83F
:1002A00000F02EFB0028C1D1BDF81030B3F5B47FAB
:1002B00000F08B8042D8B62B00F08B80F62B2ED12D
:1002C0009DF81230052BB1D99DF813109DF8182018
:1002D00080294FEA520294BF00210121283A5C484C
:1002E00003F002FDA2E7362BA2D19DF81230032BBA
:1002F0009ED99DF815109DF81620C909554803F0A0
:10030000F3FC95E7B3F5E87F2AD040F21F22934231
:100310008ED19DF81310504803F0E6FC88E7362B89
:1003200084D19DF81230032B80D99DF815109DF8CB
:100330001620C909474803F0D7FC77E7B3F5E87FF3
:100340003FD040F21F2293427FF470AF9DF813100C
:10035000414803F0C9FC69E7204603F047FC67E722
:10036000284603F043FC63E79DF81230032B7FF629
:100370005FAFBDF8130040BA80B207EE900AFAEE04
:10038000EE7A17EE900A06F023F8BDF81530024613
:100390005BBA9BB207EE903AF8EEE77A67EE887A9E
:1003A0000B4617EE900ACDE9022306F011F8DDE9BD
:1003B000022306460F462948CDE9006703F094FC66
:1003C00036E7224803F012FC30E7204603F00EFC2B
:1003D0002CE79DF81230032B7FF628AFBDF81300F1
:1003E00040BA80B207EE900AFAEEEE7A17EE900A63
:1003F00005F0EEFFBDF8153002465BBA9BB207EE82
:10040000903AF8EEE77A67EE887A0B4617EE900A94
:10041000CDE9022305F0DCFFDDE9022306460F46A5
:100420000E48CDE9006703F05FFCFFE60C4803F0DF
:10043000DDFB01201DB0BDEC028BF0BD806500101E
:100440000AD7233C986400102C65001050650010FA
:10045000F06400101065001064650010CC6400109A
:10046000886400102DE9F047002604468846C379C9
:1004700082B046EC4030E02340F60571074680F834
:100480000F808181837357F80C0B0422394605F0E5
:1004900097FF4FF00109E37949EC4030282540F6F9
:1004A000036A05E0012001F037FA013D1FD0E3792E
:1004B00046EC4030022239462068A4F80CA005F032
:1004C0007FFF0123002120680DF107028DF80760EE
:1004D00005F06EFFE37949EC40309DF8073003F0FA
:1004E000E0039845DED1002002B0BDE8F08701208E
:1004F00002B0BDE8F08700BF2DE9F043002683B0CD
:1005000004460196C37946EC403042F2020300F102
:100510000C07394602220068A38105F051FF04222E
:1005200020680DEB020105F04BFF0125E37945EC56
:10053000403046EC403042F202433946A381022269
:10054000206805F03DFF042220680DEB020105F054
:1005500037FFE37945EC40304FF002090F4D05F1CC
:10056000060815F801CB46EC40300222394684F8E3
:100570000DC0206884F80C9005F022FF042220684A
:100580000DEB020105F01CFF0122E37942EC403043
:100590004545E6D103B0BDE8F08300BFB06500106B
:1005A0002DE9F04104460F4600685C4905F01EFE47
:1005B00022684FF0020E1346012553F8040F02F58E
:1005C000805603F5405CCCF800E0126800EA0E00AB
:1005D00082F0070203F5005302F0CF023260186088
:1005E0002946207900F092F92946607900F08EF9C9
:1005F0002946A07900F08AF9E07900F0BFF9E379A3
:1006000045EC443045EC4030207A00F0B7F9002644
:10061000207A46EC44003246294600F095F9E37909
:1006200046EC4030C023A046237358F80C0B2A46F2
:10063000414605F0C5FEE37945EC40300A2001F063
:100640006BF980212046FFF70DFF002861D1344A65
:10065000AF420CBF00232B46324F064618BF174649
:10066000E27940EC4020A37342F602230322A381E7
:100670004146206805F0A4FEE37945EC40307A78E5
:1006800046EC403042F60213A273A3810322414696
:10069000206805F095FEE37945EC4030BA7846ECE9
:1006A000403042F60203A273A38103224146206830
:1006B00005F086FEE37945EC403046EC403042F6EA
:1006C00002330322A38141462068A27305F078FE1D
:1006D000E37945EC403046EC4030134B0422E360B4
:1006E0004146206805F06CFEE37945EC403046EC6D
:1006F00040300E4B4146E3600422206805F060FE66
:10070000E37945EC40302046FFF7F6FE3046BDE881
:10071000F0812E463046BDE8F08100BF00127A001D
:10072000A8650010AC6500100560640405706000E9
:100730000021FFF797BE00BF6021FFF793BE00BF07
:100740004FF050420123017A52688B4013420CBF94
:1007500001200020704700BF2DE9F043002787B03B
:1007600004460E46C3798DF80F7047EC4030A02345
:100770000546037355F80C0B0122294605F020FEAF
:100780000DF10F0201233946206805F011FE012307
:10079000E27943EC40209DF80F3013F001076ED151
:1007A0009B0770D502274FF0760871234FF00009A0
:1007B00049EC4020637303232946237302222068F7
:1007C00005F0FEFD04AA49460523206805F0F0FD6A
:1007D0000122E37942EC40309DF811209DF8101081
:1007E00002F008034B454FEA521343EAC10314BF1A
:1007F0000121494636D133809DF81430317303F01E
:100800000F03082B88BF0823B3704FF00009E2796B
:10081000019349EC402003222946227320680222DA
:1008200084F80D8005F0CCFD019BF21C4946206840
:1008300005F0BEFD0126E37946EC403049EC40303E
:1008400042F605430422A38129462068A77384F851
:100850000F9005F0B5FDE37946EC4030484607B00F
:10086000BDE8F08302F0030242EA83039DF8122000
:1008700042EA03229DF8133043EA0223BBE74FF01C
:100880006608612392E7022007B0BDE8F08300BF4D
:1008900070B5044600F11C0501F10C03164607C9AA
:1008A00084E8070093E8070085E807000121204657
:1008B000FFF776FE08B1002070BD01462846FFF71D
:1008C0006FFE0028F7D1204656B1FFF735FF00280C
:1008D000F1D12846FFF730FFB0FA80F0400970BD33
:1008E000FFF726FF0028E6D12846FFF721FFB0FAE0
:1008F00080F0400970BD00BF01B11C30FFF720BF80
:1009000001B11C301146FFF727BF00BF10B44FF4F0
:1009100080740C4B53F8202003EB8003C00082F05E
:10092000400200F1804003F5805C02F0C00200F557
:10093000203003F54053CCF8002041601C605DF886
:10094000044B704704800340002915BF0C2104218B
:100950004FF0080C4FF0000C002A08BF6146064B10
:1009600053F8202003EB80034A4003F5805302F044
:100970000C021A60704700BF0480034030B40023AB
:1009800043EC440043EC400005254FF480740B4BCE
:10099000C20053F8201003EB800081F0400102F107
:1009A000804303F5203301F0C00200F5805100F5CB
:1009B00040500A605D60046030BC704704800340B2
:1009C0000FB400B583B0049C074803F00FF93CB1A5
:1009D00005A92046019102F087FF044803F006F9BB
:1009E000012002F099FF00BFB8650010EC64001010
:1009F00070B5EFF3108572B6134CD4E8CFCF012653
:100A0000BCF1000FF9D1C4E84C6FBCF1000FF4D178
:100A1000BFF35F8F4FF0010C4FEAD10E01F00703D7
:100A20000CFA03F310F80EC01CEA030608D14CEAD6
:100A3000030300F80E30C4E88F6F85F3108870BD93
:100A40001046FFF7BDFF00BF0F1B0020F8B5EFF306
:100A5000108572B6234CD4E8CF7F0126002FFAD13F
:100A6000C4E8476F002FF6D1BFF35F8F9A4227D8B3
:100A70000126D70810F807E002F0070C06FA0CFC74
:100A80001EEA0C0F00EBD2070DD125E04FEAD20E83
:100A900010F80EE002F0070C06FA0CFC1EEA0C0F30
:100AA00000EBD20718D001329342EFD24FF0FF3063
:100AB0000023C4E88F3F85F31088984207DBF8BD18
:100AC0000023C4E88F3F85F310884FF0FF300029E2
:100AD000F5D00698FFF774FF4EEA0C0C104687F825
:100AE00000C0E5E70F1B0020044A1078431CDBB26E
:100AF000172B88BF10231370704700BFF816002013
:100B000010B5054C82B001461F23182200940348FB
:100B1000FFF79CFF02B010BDC86500105C1C0020F0
:100B20004FF0E022936843F000539360704700BF9A
:100B30000021044B03F12002C3E88F1F01339342CD
:100B4000FAD17047041B00204FF0E0234FF08032B1
:100B5000C3F80024C3F80424C3F80824C3F80C2401
:100B6000C3F81024C3F81424C3F81824C3F81C24B1
:100B7000C3F82024C3F82424C3F82824C3F82C2461
:100B8000C3F8302462B67047012300F01F0293407F
:100B9000400941B1800000F1604000F56140C0F8BB
:100BA000803103607047024A203042F8203070479D
:100BB00000E100E00123064A410952F8212000F03B
:100BC0001F0003FA00F0104214BF184600207047BF
:100BD00000E100E001224309044900F01F0002FA8D
:100BE00000F0403341F82300704700BF00E100E00F
:100BF000054A10309268054B52F82000C01A472869
:100C00008CBF00200120704700ED00E0FC160020A2
:100C100010B5EFF3108C72B6114BD3E8CF4F012211
:100C2000002CFAD1C3E8442F002CF6D1BFF35F8F1C
:100C30000C4A103092680C4C52F82020A24203D08B
:100C4000914201D001F054F9064A926842F820100E
:100C5000BFF35F8F0022C3E88F2F8CF3108810BD85
:100C60000D1B002000ED00E0110100102DE9F04FF8
:100C70008A4685B0EFF3108B72B6DFF8D491D9E8CD
:100C8000CF1F01230029FAD1C9E8413F0029F6D13D
:100C9000BFF35F8F674991F90060002EC0F2C880F2
:100CA000654C00F1100706EB460004EB80039D79CC
:100CB00080000D70614980468968019051F82710C5
:100CC00070000D1B472D9E4602903AD821F0010C72
:100CD0009CF8075095420CD87EE003EB430004EBF0
:100CE0008000C57903EB4300954204EB800055D9A1
:100CF00084469CF90630002BEFDA4BF60150039046
:100D00000CF1040001900198AEF104052D1AC5F311
:100D10004A056FEAC5456FEAD5450298DFF82C8190
:100D200030448CF80660ACF8045004EB800644F8BC
:100D3000208086460398B371B080F271C6F808A08F
:100D40001EE03F4DA94273D1DA713E4A08F1020814
:100D5000A044043AA2EB0802C2F34A026FEAC2427C
:100D60006FEAD2425A804BF601524FF421459A80E5
:100D7000FF220198C3F808A043F0010125529A719F
:100D80002E4B9B6843F82710BFF35F8F0023C9E801
:100D90008F3F8BF3108805B0BDE8F08FBCF80400DE
:100DA0000CF104054005019510D4019D4015023059
:100DB00005EB40006FF00705A5EB08052D1B284447
:100DC000C0F34A0040F4604003909CE700F5FF1038
:100DD00000F5FF501F30E8E76FF00705DA714FF4B8
:100DE00021424AF6AA260198A5EB08052252281BA3
:100DF000144A354608F10208134E6044A044C0F37B
:100E00004A00043A3043A2EB08029880C2F34A0237
:100E10000E4832435A80C3F808A06246121B524162
:100E200055432D0D43F001019D71CCF80000A7E75B
:100E300001F05EF824210020FC16002000ED00E007
:100E4000110100104417002000E0FFFF0148804717
:100E50000D1B00202DE9F84FEFF3108872B66A4E93
:100E6000D6E8CF2F0123002AFAD1C6E8423F002A54
:100E7000F6D1BFF35F8F654B00F1100E9B6853F8FE
:100E80002E50634B9D423AD08D4245D0614C2B1B76
:100E9000472B34D84FF001094709BF0007F16047DD
:100EA00007F561473B6800F01F0009FA00F9C7F831
:100EB000809009EA030ABFF35F8FEFF30583DBB28B
:100EC0009B465BBB25F0010CDCF80800814209D190
:100ED00090E003EB430204EB8202906813468142E8
:100EE00023D09C469CF90630002BF2DA814256D082
:100EF000BAF1000F16D0C7F88091C7F80090434BA5
:100F00009B6843F82E50BFF35F8F0023C6E88F3FE6
:100F100088F31088BDE8F88F1D46F0E79E45D1D0D4
:100F200000F0E6FFC7F88090E9E792F90610002983
:100F300036DB01EB410C04EB8C0CDCF8082048009C
:100F40009A609CF80720DA719CF90620002A9A71B1
:100F50003EDBBCF80420520504D502F5FF1202F571
:100F6000FF521F32521502F1020C4FF0040B0C22FB
:100F700012FB01B202EB4C026FF0070C2244ACEB07
:100F8000030C6244C2F34A0242F460429A80224B4C
:100F900008441A7804EB80041970A271A8E763462C
:100FA000BBF1000F17D1FF228CF806204BF601523F
:100FB000ACF8042018484AF6AA2290F800C0194656
:100FC000091B49414A43120D83F806C002708FE79E
:100FD0004BF60152DAE7114A1148D21A083AC2F325
:100FE0000A316FEA01516FEA115140EA5202DA8088
:100FF00099807DE79CF906106346002999DABBF1D8
:10100000000FE8D1024DD5E70D1B002000ED00E0F8
:1010100011010010FC160020242100204E17002092
:1010200000F8FFFFF0B5EFF30585EDB2EFF3108C9C
:1010300072B62C49D1E8CF2F0123002AFAD1C1E89A
:10104000423F002AF6D1BFF35F8F274E40F0010EDA
:10105000B4684AF6AA2354F82570244A0446A41A10
:10106000644163431B0D77455BB223D092F9064080
:101070009C4224D092F912409C422BD092F91E40FF
:101080009C4229D092F92A409C4227D092F93640BE
:101090009C4225D092F942409C4208BF05240FD0C3
:1010A000134A0024157813708571C1E88F4F8CF3B3
:1010B0001088F0BDB2680F4C42F82540F0E70024DC
:1010C00004EB440402EB8402FF2494714BF60154B8
:1010D0009480E5E70124F3E70224F1E70324EFE736
:1010E0000424EDE70D1B002000ED00E0FC160020BD
:1010F000242100201101001010B5074C82B00146D8
:101100000523002200940548FFF7A0FC0028A8BF93
:10111000C0F1330002B010BDE465001029210020A9
:10112000014B194401607047041B0020F8B5124DB3
:10113000124EB5421FD22C462368FF277BB1FFF722
:10114000D3FC01462846FFF7EBFFA780BFF35F8F74
:101150000834B4420FD223682546002BEFD1FFF7A5
:10116000C3FC01462846FFF7DBFF2771BFF35F8F03
:101170000834B442EFD3F8BDD0170020D8170020B0
:1011800010B50446FFF7B0FC01462046FFF7C8FF44
:10119000FF232371BFF35F8F10BD00BF10B504465E
:1011A0000120FFF7ADFC034B18442060BFF35F8FB5
:1011B00010BD00BF041B0020024B19440160BFF3A7
:1011C0005F8F7047041B002010490B68EFF31080FD
:1011D00072B6D3E8CFCF0122BCF1000FF9D1C3E83A
:1011E0004C2FBCF1000FF4D1BFF35F8F084A4FF0D2
:1011F000000C137809680133DBB21370C1E88FCF9C
:1012000080F3108840BF002000217047FC200020A0
:1012100026210020000000002DE9F04F2DED028B6B
:1012200085B0EFF30583DBB2103B9A0818BF0122AB
:101230004FF0010103F00300AD4B00EB82020CBF45
:10124000AC4FAD4F53F8226001FA00F207F541535D
:101250009FEDA58BB046019000925A6035E0B8F83A
:1012600004301B0440F1928098F80630002B40F0C7
:10127000DF80B8F90820002AC0F22581D8F81430A0
:1012800002EB420203EBC202D2E90245B5F1FF3F95
:1012900008BFB4F1FF3F0DD0019B07EB8301BB6A90
:1012A0000A69D21AE31A934203D33B6A009A1342A3
:1012B00000D10C61384600F0CBFB201A65EB01052C
:1012C000012875F1000380F2FE80B8F90840009B08
:1012D000002CFB63C3DBD8F814A004EB440B3846A6
:1012E0000AEBCB05D5E9029600F0B2FB484561EB6D
:1012F00006010029B3DB002EC0F2C3802B697F4AB0
:10130000934200F0FD806A88B8F9080092B242EA80
:1013100000406969984702460B4652EA030100F013
:10132000B080002B80F2D580B9EB020066EB03039E
:10133000C5E902033AF93B50002D90DBD8F814C000
:1013400005EB45010CEBC1018A68821ACA6863EBA0
:101350000202002A83DBA8F8085007E09568451BC5
:10136000D56863EB0505002D08DB1146B1F9006077
:1013700006EB4602002E0CEBC202EFDA2AF83B60C5
:101380000C80B8F804301B043FF56EAFD8F810306D
:10139000EFF3108272B6D3E8CF0F01210028FAD103
:1013A000C3E8401F0028F6D1BFF35F8F4FF6FF70F0
:1013B000B8F804900023D8F810100FFA89F9A8F8AB
:1013C0000400C1E88F3F82F310889945FFF64CAFC7
:1013D000BA46D8F8145008F1080B09EB490E05EB92
:1013E000CE03D3E90267B8F90830DC46002B05DAF2
:1013F0000FE035F934308446002B0ADB03EB43045D
:1014000005EBC400D0E90212711A67EB0202002A50
:10141000EFDAACF8009035F93E9025F83E30B9F19E
:10142000000FDADA98F806305746002B3FF421AF68
:10143000002388F80630B8F9083008F1080C5E1C63
:1014400041D01A46D8F8144003E08446591C3FF4B2
:1014500012AF03EB430104EBC10045881E462D0487
:1014600034F93130F1D5964280ED028BEED0ACF8F4
:101470000030B8F8082024F831203246A8F8086077
:10148000E4E73AF83B30A8F80830D8F81030EFF32A
:10149000108272B6D3E8CF0F01210028FAD1C3E839
:1014A000401F0028F6D1BFF35F8FB8F80230D8F89C
:1014B00010102AF83B300023A8F80240C1E88F3F03
:1014C00082F31088CBE640BF05B0BDEC028BBDE8CF
:1014D000F08F3846CDE9022300F0BAFA029A039B56
:1014E000801843EB010323E7FFFFFFFFFFFFFFFF30
:1014F000D420002000000B4000800B401912001087
:101500006B6918461A69029390470028B9D0029B6C
:10151000D3E9002301E700BF2DE9F84F364C2569D8
:101520002DB1BDE8F84F0A213448FFF7F9BDDFF8C7
:10153000E48003260321404600F078FAC4F80C80CA
:10154000FFF7D2FA4FF0504C2D4B26701844DCF8C0
:1015500000300F216370636961801D834FF00405C3
:10156000A3F878504FF00505A3F890504FF006050A
:10157000A3F8A8504FF007050E21206108274FF669
:10158000FF724FF00A0EA3F8C0504FF001094FF060
:101590000C0C4FF0020B4FF0090A0D204FF00B0519
:1015A000A3F868111749A280A3F808E1A160A3F885
:1015B00048B0A3F8F0A0A3F82051A3F838C1A3F8CD
:1015C0005001A3F83090A3F86060A3F8D8701A8097
:1015D0000D4B3046C8F820700C49DC60FFF718FB53
:1015E00049463046FFF7D0FA094B0A211F600348ED
:1015F000BDE8F84FFFF794BD5C170020FC200020E9
:10160000041B0020FFFF1000D4200020191200103E
:1016100040200B4000000B40004870475C17002042
:101620002DE9F0419DF82050044617461E4635B975
:1016300000F016FA874266EB0101002957DB2169A9
:10164000EFF3108072B6D1E8CF2F0123002AFAD130
:10165000C1E8423F002AF6D1BFF35F8FB4F9022000
:10166000D4F814C002EB4201002A4FEAC10E0CEB81
:10167000C10102DB3CF80E3063804FF000082369A3
:10168000C3E88F8F80F31088424533DB4888069B80
:101690000130C0F30E00012838BF01200B61079B09
:1016A00048804B61C1E9027640EA02402369EFF3CA
:1016B000108172B6D3E8CF6F0125002EFAD1C3E8AE
:1016C000465F002EF6D1BFF35F8FA3882CF80E3053
:1016D000A2802369C3E88F8F81F310880122E36819
:1016E000217803F501538A405A60BDE8F08128460D
:1016F000BDE8F0814FF0FF30F7E700BF0146F0B5DD
:101700000069EFF3108772B6D0E8CF5F0124002D97
:10171000FAD1C0E8454F002DF6D1BFF35F8FB1F984
:1017200002E04C690EEB4E0C4FEACC06BEF1000F06
:10173000A8BFA05B4FF00005A8BF488004EBCC0C0D
:101740000869C0E88F5F87F31088AE4535DBBCF8C9
:101750000200CCE902230130C0F30E00012838BF9B
:101760000120059BACF80200CCF81030069B40EA43
:101770000E40CCF814300B69EFF3108272B6D3E848
:10178000CFCF0127BCF1000FF9D1C3E84C7FBCF1EA
:10179000000FF4D1BFF35F8F8B88A353A1F804E04F
:1017A0000B69C3E88F5F82F310880122CB68097848
:1017B00003F501538A405A60F0BD4FF0FF30F0BD91
:1017C0004289B2EB214F38DD42690B1403EB43032E
:1017D00010B502EBC3030469EFF3108C72B6D4E8C2
:1017E000CFEF0122BEF1000FF9D1C4E84E2FBEF1B8
:1017F000000FF4D1BFF35F8F5A8889B292B28A4248
:1018000007D000230269C2E88F3F8CF31088184686
:1018100010BD42F400425A80012300220169837105
:10182000C1E88F2F8CF31088C268017802F501524D
:1018300003FA01F11846516010BD0020704700BF47
:10184000407870472DE9F043861F41F1FF35B042E3
:1018500071EB050338BF002683B038BF3546044618
:101860000F4600F0FDF8301A65EB0101012871F117
:10187000000306DA2046394603B0BDE8F04300F025
:101880001FB900F0EDF8864265EB010100290ADB83
:1018900000211C4B324600931B482B460191FFF759
:1018A0002DFF0028E6DB4FF0000EDFF868C0174977
:1018B000174ADCF824309D4205D8DCF82800B042F5
:1018C000D8D29D42D6D10B68EFF3108872B6D3E818
:1018D000CF9F0120B9F1000FF9D1C3E8490FB9F149
:1018E000000FF4D1BFF35F8F10780B68C0B2C3E86C
:1018F0008FEF88F310881378834200D120BF20BF78
:10190000D7E700BFC91100105C170020FC200020A1
:101910002621002000000B4010B5044600F0A0F87E
:101920004FF47A73E4FB0301BDE810400029BCBF0B
:101930004FF0FF306FF00041FFF784BF2DE9F04713
:1019400005460C4682B0EFF30587FFB2002F51D158
:10195000324ED6E900238B4208BF82423CD0DFF8EA
:10196000C880D8F80CA098F80090504600F070F8A5
:1019700009F104095AF829301B1A281A64EB0101ED
:10198000984271F1000327DA00F06AF8854264EBAF
:101990000101002915DB224B404600932A462346CD
:1019A0000197FFF7ABFE011E0BDD1E4BC6E900548D
:1019B0005A6A94422FD89B6AAB422AD31A48FFF73F
:1019C000FFFE184B586A844218D89B6AAB420BD36F
:1019D000012002B0BDE8F08720BF124A506A84425D
:1019E0000CD8936AAB42F3D2201A18BF012002B080
:1019F000BDE8F0870B4A506A884203D2002002B04B
:101A0000BDE8F087936AAB42E2D2401A18BF0120CA
:101A1000DFE79442D2D120BFD0E700BF7817002083
:101A2000C911001000000B405C17002010B4054BDA
:101A3000054C064AA04214BF1846581C5DF8044BDA
:101A4000FEF7D6BF601C002000800B40006600102F
:101A5000416A0B46826A416A8B42FAD1104670474E
:101A6000034B596A0A46986A596A9142FAD17047FB
:101A700000000B4010B4114A536A9C46946A536AA2
:101A80006345FAD100194B414FF0000228BF0122F3
:101A900012B14FF0FF33184608494A6A9A42FCD304
:101AA0009A4207D1054A02E0516A994202D1916AED
:101AB0008142F9D35DF8044B704700BF00000B4032
:101AC000074A536A9942FCD8994207D1044B02E075
:101AD0005A6A914202D19A6A8242F9D3704700BF92
:101AE00000000B40F8B5054606200E4600F0E4F86D
:101AF000002842D0354A364895420CBF4FF000626C
:101B00004FF08062334B344902601A608C6832EACD
:101B10000404FBD12D4B4FF48071EB1AB3FA83F31D
:101B20002E4A5B0922F81310062000F0C5F8C00009
:101B3000B0FBF6F60136F30920D1402701226A6294
:101B4000AB622E6BF30722D42B46002253F82C1FD6
:101B5000062003F5805422602E6300F0ADF8EB6A96
:101B600040F2013283F0700303F07E0323608000B3
:101B70000323B0FBF7F02A63AB64F8BD4FF6FE72A7
:101B800093421BD923464FF6FF72154FD7E740F219
:101B9000013205F540531A636B6AAC6A062004EB08
:101BA000831400F089F80F4BA402A3FB0023DB0A87
:101BB0000021B4FBF3F0FFF75DFFC5E7C6F3450670
:101BC0001A4606EB83173346B9E700BF008007408B
:101BD00000200240003002400000024008210020A6
:101BE000C0FF3F00757B2B8F00EB400C4FEA8C0C45
:101BF0000CF1804C0CF5803C70B5DCF80440A0F191
:101C0000040EB4F5803F38BF4FF480345FFA8EFE87
:101C100038BFCCF80440BEF1010F29D94FF400665B
:101C2000244D0CF54054266055F82060BEB9DCF810
:101C300000400CF5805684EA421202F0E002BEF148
:101C4000010F326028D94FF4006145F820304FF47D
:101C500080330CF500521160CCF8043070BD6C6913
:101C6000B4FBF6F4013404EB4404033CFDD2DEE79C
:101C70000129D3D103250CF540542560DCF8084038
:101C8000E407FBD5DCF800400CF5805684EA4212EC
:101C900002F0E002074D32600122DCF800404C40C7
:101CA00004F00304346002FA01F1DCF808200A426F
:101CB000FBD0C8E7641C0020014B53F8200070479C
:101CC000641C002070B4039C0568240344EA0343A9
:101CD0001B4C002DB4FBF1F4B2FBF4F21FDB194DE9
:101CE000194CA8420CBF4FF400454FF48045174EE5
:101CF000256004F580542560B46835EA0404FBD1FE
:101D0000212500F54054043401608260256002689A
:101D1000002AFCDA0822C360226070BC70470468A5
:101D200004F03F048C42DAD18468C4F30B0494427B
:101D3000D5D1C46804F4EE249C42D0D1EDE700BFB5
:101D4000001BB70000800540002002400000024058
:101D500030B44FF080441D4B1C60E0B11C4CA3F527
:101D60004053DC611B4C40F0010044401C6259624E
:101D700098624FF080454FF0E061144B1648174CC5
:101D80001D60846019604AB930BC4FF00042A3F571
:101D900080531A607047124BD861EAE74FF47A73A8
:101DA00003FB02F2B2F1807F09D20E4B1A604FF0B2
:101DB000804130BC0A480C4B4260196070476FF09C
:101DC0007F4308491A460B60F1E700BF00B00D40A1
:101DD000D3C007B02D3FF84F00A00140F3FFFF0133
:101DE00000800D40C420002000A00D40012300EB26
:101DF0004000800000F1804000F5841041600360E5
:101E0000704700BF4FF0000C30B5134683B0044656
:101E10000D46BCF81620002141E800F101934B0269
:101E200054BF1021042144F25220904786462A468E
:101E30000A212046F446019B03B0BDE830406047CC
:101E40000023DB8A002242E800F2520201D4102172
:101E500018470421184700BF002808B502DB62B10B
:101E600041F030018B0603D50023DB7C022B07D029
:101E700002464FF48170FFF7C5FF41F02001F3E700
:101E800002464FF49170FFF7BDFF00BF034AD2F83E
:101E90002838002BFBD0BFF35F8F704700000E4047
:101EA0000021044B044ABFF35F8F43F8041B9342A5
:101EB000F9D170470C080E402C080E4010B44FF4B6
:101EC0008D704FF42A64064A064B07491460D060AF
:101ED00019605368002BFCDA5DF8044B704700BFB3
:101EE0000080044000A0044000B0FA00704700BF2A
:101EF00008B50148FEF764FD2466001038B5054CAE
:101F0000054DAC4204D254F8043B9847AC42FAD396
:101F100038BD00BF406400108064001010B4074852
:101F2000074C084B084A094904601A608B6832EA7A
:101F30000303FBD15DF8044B704700BF0020024053
:101F40007F3BEFEF00300240F6FFF303000002405A
:101F5000044BDB6CB3F5004F03D14FF48022024BEE
:101F6000DA64704700001150002011504FF0E02259
:101F7000044BD2F8881D0B43C2F8883D10EE3004A4
:101F8000704700BF030330006FF06041044B054A07
:101F900019609368DB4333F06043FAD1704700BFA8
:101FA000003002400000024010B545F25320FFF718
:101FB00047FFBDE8104003460420184710B545F21E
:101FC0005320FFF73DFFBDE81040034601201847AE
:101FD000FEF7AEBD38B52B492B4B2C4D5B1A9C0838
:101FE000442C224628BF44222846920004F0F8F9E7
:101FF000432C41D8C4F1430105EB84030529244A4D
:10200000C3F38003C4F1440016D9C3B345F82420B8
:1020100004F1010CC01A234405EB8303410803EBD0
:10202000C101C3E9002208339942FAD120F001032B
:1020300098420CEB03041FD0432C45F8242004F1F4
:10204000010319D0422C45F8232004F1020313D0D8
:10205000412C45F8232004F103030DD0402C45F812
:10206000232004F1040307D03F2C45F8232004F17A
:10207000050301D045F82320064B9D6038BDA446DA
:10208000C8E700BF00000010100100100000002091
:102090001101001000ED00E00023F0B52B4C83B0DF
:1020A000C4F88430FFF70AFF0122294BDA63636C1E
:1020B000012BFCD10321264A244B11639D6B012D7A
:1020C000FCD1052302271E4600242946214A224826
:1020D0000097FFF7F7FD29463346204A204800962F
:1020E000FFF7F0FD3946224604201E4BFFF77CFD2A
:1020F0002946224630461C4BFFF776FD2246082033
:1021000021461A4BFFF770FD224609202146174B46
:10211000FFF76AFD224606202146134BFFF764FDB8
:10212000114B224607202146FFF75EFD0420FFF7F2
:10213000C3FD0F4DA5FB0035AD0CE0B229460134BF
:10214000FFF754FE062CF8D103B0F0BD00000140AB
:1021500000300140002F685900000540008C864780
:1021600000800540001BB70080D1F008006CDC0245
:1021700083DE1B4386B003B451FC0804CDE90201A1
:1021800051FC0904CDE9040151EC0A04CDE9060132
:1021900003BCF047BDE800504EEC00C4BDE8005061
:1021A0004EEC01C4BDE800504EEC02C400BD00007E
:1021B00000B5FFF7DFFF02E010FE30F4F8D441EC89
:1021C000100443EC112400EE010410EE010480EE33
:1021D000200451EC1004704700B5FFF7CBFF02E07C
:1021E00010FE30F4F8D441EC100443EC112400EE5E
:1021F000010410EE210480EE200451EC30047047FD
:1022000000B5FFF7B7FF02E010FE30F4F8D410B5C8
:1022100041EC100443EC112451EC040453EC05246C
:10222000A0FB024C5FF0000EE0FB03CEE1FB02CE10
:102230004CEC20440024E1FB03E444EC30E480EE69
:10224000200451EC500410BD00B5FFF793FF02E0ED
:1022500010FE30F4F8D441EC100443EC112451EC9E
:102260002104A0FB01126FEA820252FB100052FB14
:1022700012F252FB1000A0EBD07C53EC04245CFB68
:1022800013F153EC1524A1FB022001FB030053ECD6
:102290004424A2EB000050FB1CF24FEA111312EB96
:1022A000017043EBE27140EA515020EA915020F076
:1022B000070053EC7524A0FB023C53EC752400FB93
:1022C00003CC01FB02CC53EC0424ACEB824C40EA7F
:1022D0005C70A0F1010041EC400480EE200451EC60
:1022E0007004704700B5FFF745FF02E010FE30F4C0
:1022F000F8D440EC700400EE010410EE210480EEEE
:10230000200451EC3004704700B5FFF733FF02E0C2
:1023100010FE30F4F8D440EC600400EE010410EE3E
:10232000210480EE200451EC3004704700B5FFF723
:1023300021FF02E010FE30F4F8D441EC800400EEFE
:10234000010410EE010480EE400410EE1304704707
:1023500000B5FFF70FFF02E010FE30F4F8D441ECB7
:10236000800400EE010410EE010480EE400410EE43
:102370003304704700B5FFF7FDFE02E010FE30F4B5
:10238000F8D441EC100443EC112400EE010410EEEB
:102390003004C0F30070704700B5FFF7EBFE02E0B9
:1023A00010FE30F4F8D443EC102441EC110400EE9C
:1023B000010410EE30F48CBF01200020704700BFF4
:1023C00000B5FFF7D7FE02E010FE30F4F8D443EC7E
:1023D000102441EC110400EE010410EE30F42CBF87
:1023E00001200020704700BF00B5FFF7C3FE02E0E8
:1023F00010FE30F4F8D441EC100443EC112400EE4C
:10240000010410EE30F42CBF01200020704700BF03
:1024100000B5FFF7AFFE02E010FE30F4F8D441EC57
:10242000100443EC112400EE010410EE30F48CBFD4
:1024300001200020704700BF704700BF2DE9F84F12
:102440009A460D9B17469A0706468B46DDF828806C
:1024500011D1DDE90B3293420DD213463C460B9A63
:102460009D1A3D4422465346594620200134B04728
:10247000AC42F7D100E03D460B9B73B108EB03047F
:1024800004EB0509A9EB040214F8010D5346594663
:10249000B0474445F6D10B9B1D440D9B9B070ED5C1
:1024A0000C9BEF1BBB420AD91C462A465346594691
:1024B00020200137B047BC4205F10105F5D8284678
:1024C000BDE8F88F2DE9F04F0F9EDDF824E016F0FF
:1024D000020F0A9C9DF82C900E9DDDE90C872CD1F3
:1024E000002D74D1BC4206F0010B80F0CB801F2C74
:1024F00088BF202400F2C68004F1FF3C4FF0300A70
:10250000F44401E0202C04D00134A7420CF801AFC0
:10251000F8D8BBF1000F10D0A5420ED9202C2DD039
:1025200004F1FF3C4FF0300AF44401E0202C25D0A8
:102530000134AC420CF801AFF8D116F0100F38D0CE
:1025400016F4806F26D10CBBB8F1100F7FD0B8F114
:10255000020F00F0928030248EF800400124B9F17F
:10256000000F2BD02D270EF804700134CDE90B5647
:10257000CDE909E4BDE8F04FFFF760BF16F0100F9A
:102580004FF02004F2D016F4806F03D1A74249D057
:10259000A54247D0B8F1100F4ED0B8F1020F39D094
:1025A000202CE3D04FF0300C0EEB040787F800C06E
:1025B0000134202CDAD0B9F1000FD3D177071DD424
:1025C0003707D3D520270EF804700134CEE716F074
:1025D000010B0DD0B9F1000F22D116F00C0F1FD155
:1025E000BC4299D21F2C87D9202DC7D82024A4E71C
:1025F000BC42A2D21F2C7FF67FAFF7E72B270EF845
:1026000004700134CDE90B56CDE909E4BDE8F04F83
:10261000FFF714BF202CA9D00EEB0407013440E0D3
:10262000013DDDE7671E8FD0B8F1100F2FD0B8F154
:10263000020F35D03C46B5E7B7060FD4202C95D015
:102640000EEB040C013478278CF80070A8E7B40670
:102650000ED478248EF800400124A3E7202C85D0E6
:102660004FF0580C0EEB040787F800C0013497E7D1
:1026700058248EF80040012494E762248EF800402C
:1026800001248FE7BBF1000F08BF002555E716F0C6
:10269000200FA4F10204E3D10EEB040C3C46D2E778
:1026A00077444FF0620C87F800C079E700B97047B3
:1026B00001F05EBA10B1D1E900311847704700BF90
:1026C0002DE9F04F2DED048B9BB02A9CDDE9288984
:1026D00009942B9C83461D460D940C920C46424651
:1026E0004B4640464946DDF8B0A0FFF747FE0028BC
:1026F00040F0D680404649464FF0FF32744BFFF71A
:102700008BFE002840F0CC80404649464FF0FF3217
:102710006FF48013FFF744FE002840F0C18040466C
:10272000494600220023FFF73BFE002840F0C1810C
:10273000CDE90A89DDE90A231F461AF480631646AB
:102740001193099B08BF0623099356EA070340F03B
:10275000C3801AF4006E00F0A4819FED5B7B002320
:102760008DED0E7B1093099B109A00269342D2BFE9
:102770000023A3EB020E0EF1FF3309934AF4806AA3
:1027800010960D9BB34294BF00279F1B1AF00203C3
:10279000119302D0002E18BF0027109B3BB1DDE93A
:1027A0000A01DDE90E23FFF753FDCDE90A0140469A
:1027B000494600220023FFF7F3FD30B1DDE90A01AD
:1027C000024601F10043CDE90A239DED0A7B099BF6
:1027D0008DED007B02932AF40063049321462B467F
:1027E00058460C9A039700F09BF98046002E51D072
:1027F0001AF0200F424614BF452065202B46214683
:10280000D847109A0DF1480C82EAE273A3EBE27309
:102810004FEAD27E002762461846DFF8B89008F1EA
:10282000010806F1FF3A01E0202F0FD00646A9FB70
:102830000031C90801EB8103A0EB43033033092EBB
:10284000084607F1010702F8013BEDD805230020F7
:1028500006930A234246CDE9033021462B465846CB
:10286000CDE9017ECDF814A0CDF800C0FFF72AFE17
:10287000119B804673B10C9B0D9FC61AB74209D9B4
:1028800042462B46214620200136D847B74208F160
:102890000108F5D840461BB0BDEC048BBDE8F08FB5
:1028A0000D9B21462B9358462B46099C0C9ACDE94B
:1028B0002889CDF8B0A02A941BB0BDEC048BBDE8EC
:1028C000F04F00F02DB900BF000000000000000034
:1028D000FFFFEF7FCDCCCCCCC7F30A50A0F2FF3086
:1028E000FFF704FD8AA3D3E90023FFF78DFC8AA339
:1028F000D3E90023FFF760FCC7F3130341EC180B87
:1029000043F07F51304600227B4B41F44011FFF7EA
:1029100067FC6BA3D3E90023FFF776FC02460B4666
:1029200051EC180BFFF748FCFFF704FD1090FFF780
:10293000DDFC65A3D3E9002306460F46FFF764FCE0
:1029400000226E4BFFF738FCFFF7F4FC03463946D4
:1029500030460E935EA3D3E90023FFF755FC0646ED
:102960000E980F46FFF7C2FC5BA3D3E90023FFF7E5
:102970004BFC02460B4630463946FFF731FC024617
:102980000B4606460F46FFF73FFC324641EC180B5C
:102990003B4630463946FFF70FFC002241EC190B4D
:1029A000574B51EC180BFFF753FC0022554BFFF728
:1029B00003FC02460B4651EC180BFFF749FC0022C2
:1029C000514BFFF7F9FB02460B4651EC180BFFF792
:1029D0003FFC32463B4606460F4600204FF0804102
:1029E000FFF7FEFB02460B4630463946FFF7E4FB95
:1029F00002460B4651EC190BFFF72AFC0022434B11
:102A0000FFF7DAFB0E9B002203F2FF363305FFF7D8
:102A1000FBFB06460F46DDE90A0132463B46CDE99F
:102A20000E67FFF7BDFC60BB31463A46109B63332F
:102A3000C72B34BF042605261AF4006F3FF4A1AE5D
:102A400051EA02033FF48FAEDDE90A0124A3D3E982
:102A50000023FFF7CDFC48B1DDE90A0122A3D3E949
:102A60000023FFF79DFC00287FF47DAE099B002B1F
:102A70003FF487AE119A002A3FF483AE013B0993DD
:102A80007FE6109B0022013B109330461D4B3946D8
:102A9000FFF7DEFB0B4602460146CDE90E231A4640
:102AA000C4E79FED137B04268DED0E7BCDF840E04F
:102AB00067E609F10043CDF828800B933AE600BFA2
:102AC00061436F63A787D23F71A379094F930A408F
:102AD0001655B5BBB16B0240EF39FAFE422EE63F08
:102AE0002D431CEBE2361A3F0000000080842E418B
:102AF00000000000000000000000F83F0000E03F80
:102B000000002C4000002440000018400000F03F6E
:102B1000FB799F501344D33FB3C8608B288AC63FCC
:102B20002DE9F04F2DED028B95B0DDE9224506959C
:102B3000249DDDE92067CDE90701CDE90923304671
:102B400032463B4639460595FFF718FC002840F011
:102B5000C481304639464FF0FF326FF48013FFF7DF
:102B60001FFC002840F00D81304639464FF0FF32FF
:102B7000BF4BFFF751FC002840F0DD80B8A3D3E93C
:102B8000002330463946FFF747FC002840F0C1805B
:102B9000B5A3D3E9002330463946FFF701FC0028EE
:102BA00040F0B7803046394600220023FFF7F8FB9B
:102BB000002840F0DA802B460B9013F4806F08BF9A
:102BC00006243021A2460CABA4F1200206E00AF153
:102BD000FF3A524503F8011B00F03181BAF1090FA9
:102BE000A4EB0A05F3D839463046FFF7A3FBA14B07
:102BF000044603EBCA0393ED008BFFF777FB024615
:102C00000B4630463946FFF7EBFA53EC182BFFF72B
:102C1000FBFA89468046FFF79FFB8346FFF778FB68
:102C200002460B4640464946FFF7DAFA0022924B2D
:102C300080468946FFF7F0FB002800F0F1800BF199
:102C4000010B5846FFF764FB02460B4651EC180B8C
:102C5000FFF7BAFB10B14FF0000B0134BAF1000FCF
:102C600040F09A802046FFF741FB02460B46304673
:102C70003946FFF7B5FA00227F4B06460F46FFF7AD
:102C80008FFB40B93046394600227B4BFFF7C4FB2F
:102C9000002800F016816A1E0CAB78491A44202DDA
:102CA0004FEAE47300F0938081FB0460C3EBA00360
:102CB00003EB8300A4EB400404F1300001351C4613
:102CC00002F8010F002BEAD1059B03F00303012B4F
:102CD00000F08380202D0AD00B9B002B00F0B180E8
:102CE0002D2205F150036B4403F8202C0135059B80
:102CF0000CAC0393069B0094CDE90153DDE9070179
:102D0000DDE90923FFF79AFB15B0BDEC028BBDE8A6
:102D1000F08F059BCDE92067DDE907012493069B31
:102D200022942393DDE9092315B0BDEC028BBDE8A5
:102D3000F04FFFF7C5BC05F004042395504D002C5F
:102D4000504C18BF2C46DDE9070120940CBF03242A
:102D50000424069B2293DDE90923219415B0BDECE0
:102D6000028BBDE8F04FFFF769BB01213B463246BD
:102D70000B9100200021FFF733FA2B4606460F4641
:102D80001BE7069C239522940424DDE90923DDE951
:102D900007013D4D2095E0E7681E0CAB3B4F184402
:102DA0000FE0A7FB0B32D20802EB8203ABEB43032D
:102DB0003033BBF1090F00F8013F69D9B2469346A1
:102DC0000D46202D0AF1FF3605F10101E9D1059BE1
:102DD000202503F00303012B89D1069B002B3FF430
:102DE00079AF0B9B1BB9059B13F00C0F02D0069B10
:102DF000013B0693069BAB427FF66CAF202D0DD0B6
:102E000030226B1E0DEB02010B44069901358D42F9
:102E100003F8012F3FF45EAF202DF7D1202566E7A0
:102E2000404649460022144BFFF7BAFA00287FF4C7
:102E300015AFBBF1000F4BD10BF1010B0EE72025B5
:102E4000D1E6059B5A0741D41B077FF550AF2022DE
:102E500005F1300313446B4403F8202C013546E799
:102E60000000000065CDCD410000000065CDCDC162
:102E7000FFFFEF7FE86600100000E03F67666666D0
:102E8000D4660010D0660010E0660010CDCCCCCC2B
:102E900020299CD05EB30CAB5A1930200D46013569
:102EA000202D02F8010F92D0EB430B4413EB0A0FD5
:102EB000F5D12E2205F150036B4403F8202C013587
:102EC000E9E6E1077FF5E7AE0134E4E62B2208E707
:102ED0001BF0010F3FF4C2AEAEE7069C239522948F
:102EE000044D0324DDE90923DDE9070152E70D461E
:102EF000DFE700BFDC6600102DE9F04F9BB0249C9B
:102F0000844D0994844C0F1E18BF834625601878A1
:102F1000824D904608BFAB46002800F0C4821C4694
:102F20004FF0000A0AE0524643463946D8470AF1B4
:102F3000010A01342078002800F0C9802528F2D148
:102F40000021631C1C4613F8010BA0F12002102A7B
:102F50000AD8DFE802F03C09093909090909090919
:102F60000936093309093000A0F13003092B40F27A
:102F700090802A2800F0B98000252E2800F0988043
:102F800000230A93A0F16803122B27D8DFE813F07F
:102F90001F0126001A012600270126002600260010
:102FA00026002600260026002200260026002600F5
:102FB00026002600220041F00101C3E741F0020192
:102FC000C0E741F00401BDE741F01001BAE741F06C
:102FD0000801B7E7607841F480710134A0F125035E
:102FE000532B00F28E80DFE813F01C018C008C0064
:102FF0008C008C008C008C008C008C008C008C0071
:103000008C008C008C008C008C008C008C008C0060
:103010008C008C008C008C008C008C008C008C0050
:103020008C008C008C008C008C00C5010201C50155
:103030008C008C008C008C008C008C008C008C0030
:103040008C008C008C008C008C008C008C008C0020
:103050009B008C008C008C008C008C008C008C0001
:103060008C008C009B008E019B00C5010201C501F4
:103070008C009B008C008C008C008C008C009B00D2
:103080006E018C008C0026018C009B008C008C0053
:103090009B00002505EB850500EB450514F8010FA5
:1030A000303DA0F13003092BF4D92E287FF468AF0E
:1030B000607841F48061A0F13003092B04F1010232
:1030C00040F23F812A2800F04B81144658E75446CD
:1030D000D04501D808F1FF3A434652463946002010
:1030E000D84720461BB0BDE8F08F099B607853F8A5
:1030F000045B0134002DBCBF41F002016D42099315
:103100003BE752464346394601340AF1010AD847A3
:1031100010E700BFF92E0010C02000203924001055
:10312000782800F07A81582800F0C0816F2800F0DC
:103130000E82622800F06A8321F0100369284FF0A4
:103140000A090B9340F00682490500F16D810B9B43
:1031500013F4007040F0088213F4807140F0E382B1
:103160005E06099A00F1498213F0800F52F8043B81
:1031700000F097831BB2099283EAE372A2EBE37239
:1031800092B2D80F0D90002B40F065820B9820F082
:10319000100340050B9340F15E8212AB0C93524634
:1031A0000B9BCDE905530A9BCDE903930D9BCDE91C
:1031B00001130C9B0093434639465846FFF782F9AA
:1031C00082467EE0607841F40071013406E7607861
:1031D000682800F0638141F080010134FEE66078E8
:1031E0006C2800F0568141F480710134F6E60A9BA8
:1031F000462808BF41F020010293099BCDE9035105
:10320000073323F00705B5EC027B524643463946A7
:1032100058468DED007B0995FFF782FC013482460C
:1032200088E60AF101005246434682463946252087
:103230000134D8477EE6099B53F8046B0D930A9B33
:103240003078002B00F0D880002800F032835A1E1E
:103250000132B146324401E0914503D019F8013FF3
:10326000002BF9D1A9EB0603099311F480630B93AA
:1032700005D0DDE90932934228BF1346099311F0C6
:1032800002030C9300F04981002800F034810B9B6D
:10329000002B00F0B7800A9B52465344994608E041
:1032A00043463946D84716F8010F0AF1010A10B112
:1032B0005246D145F4D10C9B002B40F01C810D9B54
:1032C0000993013436E6099850F8043B002B74D07A
:1032D00041F0210512AA164600210C9202E0202995
:1032E00074D0134603F00F0C6246BCF1090F94BF73
:1032F000303237320F2B06F8012B01F101014FEA72
:103300001312ECD862E08B0740F1DA80DDF82490EC
:10331000524659F8040B43463946C0B2D847012DEE
:103320000AF1010688BFAA4440F291813246434621
:10333000394620200136D8475645F7D1CDF824909C
:10334000BFE7002303EB830300EB430312F8010FF5
:10335000303BA0F13004092CF4D914460A9311E64D
:10336000099BA07853F8042B0234099322EAE273F4
:103370000A9307E600F0DF03472B08BF00F0FD00CB
:103380000A9B08BF41F40061452808BF41F02001B5
:103390000293099BCDE90351073323F00705B5ECF0
:1033A000027B52464346394658468DED007B0995CF
:1033B000FFF786F901348246BCE521F010054E0581
:1033C00045F0210586D5194612AB0C930A9B52464F
:1033D00004930C9B019100930823059310230393FE
:1033E0000023099002933946434658460695FFF755
:1033F00069F8013482469DE56FF0010200287FF4F0
:1034000027AF31E7524643463946D84716F8010FF1
:103410000AF1010A0028F5D14DE74FF0100921F01B
:103420000C0349050B9303D50B9B23F001030B936E
:1034300069283FF48CAE64283FF489AE0B9B13F4EB
:10344000007040F0528113F4807140F0C6815E0636
:1034500040F1F080099B53F8042B0993D2B2002A63
:1034600040F01E810B9820F0100340050B9340F1B3
:103470001781114612AB0C930B9B0191CDE90553BB
:103480000A9BCDE9039352460C9B009300230293C1
:1034900091E6A07841F4407102349FE5A07841F0B4
:1034A000C00102349AE50446824611E621F00C037D
:1034B00043F020030B934B054FF01009B4D4BDE744
:1034C000012D40F2F4810AF1FF331D445246434678
:1034D000394620200AF1010AD847AA45F6D1099EAB
:1034E000434656F8040B2A463946C0B2D84705F180
:1034F000010A0996E5E6099B56469D427FF6DFAE36
:1035000005EB0A00A0EB030A324643463946202069
:103510000136D8475645F7D1D1E6099A954202F1CE
:10352000010340F2C88105EB0A09A9EB02095246E2
:103530004346394620200AF1010AD847CA45F6D148
:1035400030786B1C099300287FF4A1AEB7E64FF0EA
:1035500008090B91642818BF0B997FF460AF0B9B8F
:103560005A053FF561AFF2E5099B073323F00703E6
:103570001A4610465B6850F8082B002B1946164671
:10358000099060DB0846D90F13430D913BD00B9B8C
:10359000002113F0200F14BF4123612312AA0A3B1C
:1035A000CDE90EA51094CDF844B00D4614468246E0
:1035B0009B460C9203E0202D17D006468A463046E3
:1035C0004A465146002302F013FFD2B2092A02F103
:1035D000300388BF02EB0B03DBB24E4504F8013B1E
:1035E0007AF1000305F10105E5D22A46DDF838A09D
:1035F000109C0F9DDDF844B00FE052F8043BDBB2A5
:1036000009921A46BDE50B9A22F0100352050B935E
:10361000BDD500231A4612AB0C930B9B0192CDE94A
:1036200005530A9B5246CDE903930D9B02930C9BD5
:103630000093C0E513F0800F099B53F8042B099306
:1036400018BF92B20BE7564263EB43019AE7B246CA
:10365000CDF8249035E60B9B13F0200F14BF4FF0EC
:10366000410E4FF0610E12AB9C460C93AEF10A0E68
:1036700003E020293FF493AD3246B2FBF9F609FB93
:103680001620C3B2092803F130008ABF7344C3B2C5
:10369000DBB24A450CF8013B01F10101E9D27EE5BC
:1036A0000B9B13F0200F14BF4FF0410E4FF0610E33
:1036B00012AB9C460C93AEF10A0E03E020293FF4B6
:1036C000DBAE3246B2FBF9F609FB1620C3B209287D
:1036D00003F130008ABF7344C3B2DBB24A450CF831
:1036E000013B01F10101E9D2C6E6099B073323F052
:1036F00007035A6853F8086B1046099356EA020309
:1037000035D10B9A22F0100352050B932FD50023CD
:103710001A4612AB0C930B9B0192CDE905530A9B01
:10372000CDE90393AFE6099B1A4652F8043B0D928C
:10373000D90F83EAE372A2EBE3720991002B68D1FF
:103740000B9921F010030B934B0562D512AB0C9330
:103750000B9B5246CDE905530A9BCDE90393099B88
:10376000CDE901030C9B00930D9B099323E50B9B73
:10377000002113F0200F14BF4123612312AA0A3B3A
:10378000CDE90DA50F94CDF840B00D461446824604
:103790009B460C9203E0202D17D006468A46304601
:1037A0004A465146002302F023FED2B2092A02F112
:1037B000300388BF02EB0B03DBB24E4504F8013B3C
:1037C0007AF1000305F10105E5D22A46DDF834A0BF
:1037D0000F9C0E9DDDF840B09DE7099B53F8042B2C
:1037E0000993002A39D10B9921F010030B934B0553
:1037F00033D512AB0C930B9B5246CDE905530A9B74
:103800000190CDE903930C9B00933FE64FF0020932
:103810009FE60B9B13F0200F14BF4FF0410E4FF0AB
:10382000610E12AB9C460C93AEF10A0E02E020280A
:103830008ED03246B2FBF9F609FB1621CBB209292C
:1038400003F130018ABF7344CBB2DBB24A450CF8B6
:10385000013B00F10100EAD27AE70B9B13F0200F45
:1038600014BF4FF0410E4FF0610E12AB9C460C930B
:10387000AEF10A0E02E02028BDD03246B2FBF9F6C6
:1038800009FB1621CBB2092903F130018ABF734429
:10389000CBB2DBB24A450CF8013B00F10100EAD2A1
:1038A000A9E7099283EAE372A2EBE37269E4554661
:1038B00015E60990D9E4099300287FF4E8ACFEE40A
:1038C00070B594461E4605460C4684B04FF0FF3254
:1038D000634602A900960348CDE90254FFF70CFBAA
:1038E00004B070BDB526001010B5094B84B01C683B
:1038F0004CB1034600914FF0FF3203A90548A047A1
:10390000012004B010BD00F071F9204604B010BDD4
:10391000C0200020AD26001000BEFDE7704700BFAC
:1039200008B5FFF7F9FF00BF38B5064D064CFEF7A6
:10393000E5FAAC4204D254F8043B9847AC42FAD3BF
:1039400038BD00BF8464001080640010036808461E
:1039500011461847437D2DE9F04782460F469146B0
:10396000002B44D0002A2ADD002401252046DFF860
:103970008C804E1E2CB3337816F8012FA3F10D0363
:10398000B3FA83F30A2A4FEA531320D02B46994502
:1039900004F1010405F10105ECDC814505DDA9EB2D
:1039A0000001DAF80030384498474F4417F8013CDA
:1039B000A3F10D03B3FA83F35B098AF81430BDE871
:1039C000F08716F8012F9AF814300A2ADED1002B5E
:1039D000DCD1A04204DA211ADAF8003038449847E2
:1039E00040460221DAF8003098472846CEE73846AC
:1039F000DAF800301146BDE8F04718473867001084
:103A0000F8B50B685A1C802A0B440A60187100D064
:103A1000F8BD0D4B0D461C689CB10C4E0F1D01E00E
:103A2000246974B12368002BFAD033680BB1A34228
:103A3000F6D1204639462A68FFF78CFF2469002C0E
:103A4000F0D100232B60F8BDB41C0020BC1C00206A
:103A50002DE9F04782B00D46924699460746FDF79C
:103A6000FFFF2F4A821841F10003002BBCBF4FF02B
:103A7000FF326FF000432B4802F0C2FC6B1C804603
:103A800003D1384602F02CFC0546274B274E1C6814
:103A9000274BB9F1000F08BF1E46B4B1BAF1000FB1
:103AA0001AD1DFF8909001E0246974B12368002BEB
:103AB000FAD0D9F800300BB1A342F5D120462A46FE
:103AC0003946B0472469002CF0D1B8F1000F1FD15E
:103AD000284602B0BDE8F0874FF00A0ADFF854909C
:103AE00002E02469002CF0D02368002BF9D0D9F82B
:103AF00000300BB1A342F4D120462A463946B047E4
:103B0000204601220DF107018DF807A0B047E8E734
:103B1000044802F015FC284602B0BDE8F08700BF5B
:103B200040420F00D0170020B41C0020553900106F
:103B30004D390010BC1C0020084A136823B90AE064
:103B400003F110021B6933B19842F9D129B9036915
:103B500013600161704701B110607047B41C002010
:103B600008B500F093F900F047FB012008BD00BF45
:103B7000F0B583B006468DF80700FDF771FF174AD0
:103B8000821841F10003002BBCBF6FF000434FF0DF
:103B9000FF32134802F034FC124B07461C689CB1FC
:103BA000114D01E024697CB12368002BFAD02B6809
:103BB0000BB1A342F6D1204601220DF10701FFF718
:103BC000C9FE2469002CEFD117B9304603B0F0BD0F
:103BD000034802F0B5FB304603B0F0BD40420F0091
:103BE000D0170020B41C0020BC1C002038B50446AF
:103BF00002F076FB012305461A4620462946FFF7C8
:103C000027FF084B1C682CB163682BB198472469C7
:103C1000002CF9D1284638BD2469002CF4D128465F
:103C200038BD00BFB41C00202DE9F041A2B004460D
:103C30000D46FDF715FF274A0026821841F10003C3
:103C4000002BBCBF4FF0FF326FF00043224802F060
:103C5000D7FB2B4607462246204801A90196FFF7CD
:103C60002FFE019B06467BB91D4B1C682CB1636877
:103C700043B198472469002CF9D10FBB304622B0DC
:103C8000BDE8F0812469F1E7DFF85480D8F80050EE
:103C9000EDB1144C01E02D6975B12B68002BFAD001
:103CA00023680BB19D42F6D12846019A02A9FFF77D
:103CB00051FE2D69002DF0D1D8F800400195D5E7CF
:103CC000054802F03DFB304622B0BDE8F081019589
:103CD000D3E700BF40420F00D0170020013A001088
:103CE000B41C0020BC1C00200FB400B583B004A994
:103CF00051F8040B0191FFF797FF03B05DF804EB57
:103D000004B0704700291EDD0F4A104B126830B511
:103D1000D31AB3FA83F30D240D4D5B09013835F93D
:103D200013E000EB010C10F8011F8E4506D09369DB
:103D30009B06FCD460451160F5D130BD93699D06AA
:103D4000FCD41460F3E770470C210020008007408A
:103D5000082100200029844625DD00201B4B0CF1A2
:103D6000FF3C1A689369DB0617D401309369DB06C0
:103D7000FCD4136881420CF8013FF3D1144B1B684B
:103D800083B150211346916353F8342F02F0380267
:103D900003F580531A60A8B170470D4B1B68002BC8
:103DA000EFD1F8E770470A4B1B685BB1074B502116
:103DB0001A681346916353F8342F02F0380203F562
:103DC00080531A606FF00200704700BF0C21002082
:103DD0004C1C0020054B1B6833B10021044A0548E8
:103DE0001268006891631847704700BF4C1C0020A0
:103DF0000C210020541C0020024B1A6893691B07F9
:103E0000FCD470470C21002070B51B4E1B4D32684E
:103E10000446AA420CBF2225212520B1184A0B4690
:103E2000116889B170BD164E3368002BFAD0014677
:103E300090632846FCF7A8FE28461249FDF70AF8C9
:103E4000114B34601C6070BD10600F4A28460D494C
:103E50001360FCF7DDFE01212846FCF795FE326871
:103E600050211346916353F8342F02F0380203F5C2
:103E700080531A6070BD00BF0C21002000800740F5
:103E80004C1C0020D53D0010541C002010B50E49DC
:103E90000E4C0F480F4A104B007821600020022181
:103EA00012781B78FCF732FD02210120FCF72EFD71
:103EB0004FF4E1312068FDF715FEBDE81040012107
:103EC0000648FFF739BE00BF000007400C21002064
:103ED000DC690010E0690010E46900108017002020
:103EE000024A034B10601960704700BF501C00204D
:103EF000581C0020184B70B51A68002A28D0EFF320
:103F0000108172B6D2E8CF4F0120002CFAD1C2E85E
:103F1000440F002CF6D1BFF35F8F00220F4C1868BE
:103F200059602270C0E88F2F81F31088002400258B
:103F30000B4E3078FCF73EFE20B9002400252046C9
:103F4000294670BD3078FCF745FE2046294670BDF5
:103F50004FF47A740025EBE7CC20002028210020C4
:103F600027210020014B1878FCF734BE27210020C0
:103F700038B5044600200D4601F08EFB90B30020BA
:103F800001F0A0FB70B3FDF76BFD184A821841F1F8
:103F90000003002BBCBF4FF0FF326FF0004314480A
:103FA00002F02EFAF0B1002001F076FB58B90021A2
:103FB0004FF0FF3000F086FD6FF002040C4802F075
:103FC000BFF9204638BD002001F07CFB0028EED070
:103FD00021462A46002001F081FB041E08BF6FF035
:103FE0000204EBE76FF00204EBE700BF40420F0072
:103FF0000021002008B5FDF733FD0F4A821841F17A
:104000000003002BBCBF4FF0FF326FF000430B48A2
:1040100002F0F6F970B14FF0FF30002100F052FDD0
:10402000002001F0A3FB0028F5D1BDE808400348BB
:1040300002F086B908BD00BF40420F0000210020F9
:104040002DE9F84307460E46FDF70AFD344A82186B
:1040500041F10003002BBCBF4FF0FF326FF0004373
:10406000304802F0CDF908B9BDE8F883002001F02E
:1040700013FB002849D0002E42DD0025DFF8A88080
:10408000DFF8A89013E02246002001F0B3FB0021E6
:1040900004464FF0FF3000F015FD002001F066FBF4
:1040A000FDF7DEFCC8E900012544AE4228DD002012
:1040B00001F0C4FB741B8442A8BF04467919002C8C
:1040C000E1D121464FF0FF3000F0FCFC204601F02A
:1040D0004DFB204601F0E0FA90B1204601F0AEFB26
:1040E0000028E2D1FDF7BCFCD8F80030D8F8042055
:1040F00013EB090342F10002834272EB0103D4D2B5
:104100000848BDE8F84302F01BB900200021064B27
:10411000C3E90001BDE8F843024802F011B900BF4D
:1041200040420F00002100205819002020A1070064
:1041300030B5002185B02A4802F02AF9F0B9294BA0
:104140001A68CAB1EFF3108172B6D2E8CF5F0124CA
:10415000002DFAD1C2E8454F002DF6D1BFF35F8F95
:10416000214C1D6822785960D3B201222270C5E823
:104170008F0F81F31088CBB105B030BD00214FF017
:10418000FF3000F09FFC002001F09CFA0446144828
:1041900002F0D6F8002CEFD0144B1B68002BEBD0AC
:1041A000134A106805B0BDE830401847FDF734FAEF
:1041B0000446FDF755FC10F57A7241F10003012524
:1041C000002120460B4C002BBCBF4FF0FF326FF09C
:1041D0000043CDE901150094FDF722FA05B030BD8A
:1041E00000210020CC20002028210020501C00208D
:1041F000581C0020F53E00104FF0504330B585B0FC
:104200001C68FDF709FAFDF71BFBA04202D0002055
:1042100005B030BD0021274B08461B7801F0CAFCD1
:1042200025480368002B42D00120FCF765FF0346B8
:10423000224C2349C0B22370FCF7EAFC207801210C
:10424000FCF7A2FC0E20FCF7D3FC18BB1D4B01258C
:10425000C3E90000FDF7E0F90446FDF701FC10F5A5
:104260007A7241F1000300212046174C002BBCBF9D
:104270004FF0FF326FF00043CDE901150094FDF7D8
:10428000CFF90028C3DB01211048FFF755FC0120BE
:1042900005B030BD0120FCF733FC01460948FCF7AE
:1042A0008BFF00220E200A49FCF7E0FCEBE7FCF74D
:1042B00067FFB9E7E86900100021002027210020EE
:1042C00031410010CC200020F53E0010981700204E
:1042D000653F001000487047246800100048704790
:1042E000D067001038B51A4B04461A782AB344B97F
:1042F00040F209424FF44173164D6A8015482B80F5
:1043000038BD052C21D8144B124D53F824102846E3
:104310000023013903E0132B20F8022F12D011F8EB
:10432000012F5FFA83FC0133002AF4D10CF1010361
:10433000DBB25B0043F44073E0E71121184600F064
:1043400025F8D4E74FF44A73D8E7002038BD00BF02
:10435000102100208C1C00203868001000B545F2A8
:1043600047308BB0FDF76CFD01220346092101A8FF
:104370009847DDE90332044912BA1BBAC1E90023A8
:104380000BB05DF804FB00BFF4200020013900F001
:10439000B3805D4A13784FEA231C9F2B8CBF0CF12E
:1043A000370C0CF1300C012980F800C000F0A78018
:1043B00003F00F03092BCCBF37333033022943708E
:1043C00000F09D8053784FEA231C9F2B8CBF0CF18B
:1043D000370C0CF1300C032980F802C000F08F80FC
:1043E00003F00F03092BCCBF373330330429C370DC
:1043F00000F0858093784FEA231C9F2B8CBF0CF133
:10440000370C0CF1300C052980F804C077D003F08C
:104410000F03092BCCBF37333033062943716ED0DD
:10442000D3784FEA231C9F2B8CBF0CF1370C0CF177
:10443000300C072980F806C061D003F00F03092B68
:10444000CCBF373330330829C37158D013794FEAC2
:10445000231C9F2B8CBF0CF1370C0CF1300C09295D
:1044600080F808C04BD003F00F03092BCCBF3733C3
:1044700030330A29437242D053794FEA231C9F2BD1
:104480008CBF0CF1370C0CF1300C0B2980F80AC0F2
:1044900035D003F00F03092BCCBF373330330C2951
:1044A000C3722CD093794FEA231C9F2B8CBF0CF145
:1044B000370C0CF1300C0D2980F80CC01FD003F024
:1044C0000F03092BCCBF373330330E29437316D07B
:1044D000D3791A119F2B8CBF373230320F29827358
:1044E0000DD003F00F03092BD4BF3033373310291D
:1044F000C37318BF103002D000230370704700232D
:1045000008440370704700BFF4200020704700BFCC
:104510000022014B1A707047252100204B79FF2B98
:104520000BD1887948B9CB79012B07D1082A05D955
:10453000034B8A7809201A7070470020704700BF2B
:104540002521002001207047012908D110B5114B09
:104550000C461B789188994203D0002010BD0120A1
:1045600070475378012B08D0022BF6D1002164222A
:104570000846FDF7EDFB204610BD518811F480720E
:104580001ABFC1F3C012480A4FF0FF3001F0030117
:10459000FDF762FC2521002000487047506800109C
:1045A000012907D15378012B02D19388072B03D01F
:1045B00000207047012070471146A623014A00F0F1
:1045C00023BF00BF746800100346012201481A701F
:1045D000704700BF1C69001008B50B68B3F5966FF3
:1045E00000D008BD00224FF0FF301146FDF734FC2B
:1045F000F8B500F035F90C2340271A4D1A4CAB677B
:10460000FF220E201949FCF731FB3A4600212046D3
:1046100001F0A6FE164B0126A36280210023154A55
:104620006670A260843A278327876184C2F8843049
:10463000C2F88030636084F8213084F83B306362D4
:104640000D4BE360E36201F0EBFE4FF000544FF4DA
:1046500080320A490A4B2E643046EC64C5F890104B
:10466000DA64F8BD00001150C01C0020A503002032
:1046700080001050840010500001105010D0010034
:104680000020115001210E20FCF77EBA00220248C2
:10469000114600F005B900BFE01C0020044B197062
:1046A00021B14FF40032034BC3F89020704700BF94
:1046B00022210020002011500B785B0602D14B789C
:1046C000052B00D070474B88014ADBB2136070475E
:1046D00000001150CB782DE9F04103F0030EBEF13C
:1046E000010FC3F301005BD0002791F802C0344DE5
:1046F0000CF07F025600898806EBDC1305EB4313B0
:104700004FEADC14C1F30A01D87684F0010083F883
:1047100002C019835870DF7074BB0423294803EB6F
:10472000C20305EB821C03EB0008CCF808801F5085
:104730006AB3254BD2001344CCF804303F31BEF1AC
:10474000020F21F03F0136D0204A2148136834443B
:10475000194405EB441581421160EB602DD883F0BC
:10476000A04383F480136A6843EA8E6343F00043F6
:1047700001201360BDE8F081124813B200EBC208BB
:1047800005EB821CCCF8288040F833705AB900231E
:10479000104A05EB44140120E2606360BDE8F0813B
:1047A0000020BDE8F081D20002F1A04202F58012A3
:1047B000CCF82420C2E74900C6E7FDF799FB00BF0B
:1047C000C01C00208000105004001050C8200020A1
:1047D000FF0F10500001105001F022BE8C4608B5AA
:1047E000114607481A460CF07F034FEADC1C0CEB1D
:1047F000430C00EB4C1000F053F8012008BD00BF43
:10480000C01C002011F07F000AD0C909074B01EB42
:1048100040004FF40062002103EB401001F0A8BDFE
:10482000034BC909C1F102029A66EFE7C01C0020E0
:104830000020115011F07F0300D17047002210B406
:10484000C809064C00EB430004EB40136FF4006111
:1048500018465DF8044BDA7001F08ABDC01C0020D8
:104860004FF0805209480A4908B50A4B02600A60B5
:104870009968C94311F08051FAD14FF4805206482B
:1048800001F06EFD0922054B5A6708BD0020024069
:1048900000300240000002400000105000001150A3
:1048A000837E10B50446BBB94FF0000C01232046AF
:1048B000A2822161A4F816C0A37601F049FD20B1BF
:1048C0004FF40032084BC3F89020204601F0A0FDC1
:1048D00028B10123237710BD01F0AAFDE4E72046AB
:1048E000BDE8104001F05CBD002011502DE9F04101
:1048F0004FF000081C4C0746424623781B4E1C4DC7
:104900000DE02B6813EB421325D0DB68384698473F
:1049100008F1010823785FFA88F2934206D39342A4
:10492000A2EB0303EDD806EB4313EEE7114C542240
:104930000021204601F014FD4FF0FF33251D636078
:10494000C5E90133EB6004F114002022BDE8F04119
:10495000FF2101F005BD4FF0E023D3F8F03DDB0768
:1049600000D500BEBDE8F08121210020986900102B
:1049700060190020301B0020704700BF704700BF47
:104980000020704700207047704700BF704700BF8D
:10499000704700BF704700BF024B5878003818BFFF
:1049A00001207047301B0020024B1878C0F38000B4
:1049B000704700BF301B00202DE9F047364F3B7891
:1049C000FF2B4ED10C4600294FD000215422064621
:1049D000324801F0C5FC0022314D324B28461A7096
:1049E000FCF7CEFB304B1D60304D05F11400FCF799
:1049F000D5FB284601F0C0FB2D4B1D602D4B23B18C
:104A00002D48FFF7E1FD2D4B18604FF0000A2A4DAD
:104A100053462A78DFF8A890DFF8A0800CE0D8F899
:104A2000002012EB431311D05B687BB198472A78C2
:104A30005FFA8AF39A4222D393420AF1010AEED333
:104A40009B1A09EB43135B68002BEFD14FF0E02377
:104A5000D3F8F03DDA0700D500BE00242046BDE8BB
:104A6000F08701242046BDE8F0874FF0E023D3F81B
:104A7000F03DDB07F1D500BE2046BDE8F0872146BA
:104A800030463E70FFF7B4FD04460028EDD03046B6
:104A9000FFF7F8FDE6E700BFCC170020301B002031
:104AA000281B002023210020841B0020B017002099
:104AB000881B0020C945001021210020601900201A
:104AC000986900102DE9F04FDFF8BC928BB099F88F
:104AD0000030FF2B00F0EC80A64CDFF8B0A2DFF82E
:104AE000B0B225686B69EFF3108272B6D3E8CF0FCE
:104AF00001210028FAD1C3E8401F0028F6D1BFF3F6
:104B00005F8FAA61284607A901F092F900236A691C
:104B1000C2E88F3FAB6983F31088002800F0C8809B
:104B20009DF81D30013B072B00F27983DFE803F08D
:104B3000A4AF909988360A04089B002BD1D009981D
:104B40009847CEE79DF820108B4B01F07F0503EBD3
:104B5000450303EBD11393F834206FF3000283F87D
:104B6000342093F834206FF3820283F83420002D30
:104B700000F0A18081481A7D03789A4280F09080ED
:104B8000DBF8003013EB421300F08B809D699DF839
:104B90002120099B9DF81C00A847A2E7784A1378BA
:104BA000002B7ED01378013BDBB21370137803F037
:104BB000FF00002B95D1704D9DF81C802B7843F0A1
:104BC00001032B7095F8343060F3000385F834301E
:104BD00095F8343060F3820385F8343095F8353039
:104BE00060F3000385F8353095F8353060F38203C3
:104BF00085F8353000F078FC9DF8203003F0600235
:104C0000602A0BD0402A60D003F01F03012B00F074
:104C1000C180022B00F08680002B62D04FF0E02391
:104C2000D3F8F03DDD0700D500BE9DF81C00002143
:104C3000FFF7E8FD80219DF81C00FFF7E3FD50E73A
:104C40004D4B1B78D9077FF54CAFFFF7A3FE48E724
:104C5000494BDB78DA077FF544AF0898FFF78EFE03
:104C60003FE7454B1A78D0077FF53BAF1878C0F384
:104C7000C000FFF78DFE34E79DF81C00FFF736FEFD
:104C800000F028FC3C4B9DF820209A7029E79DF805
:104C90001C00FFF72BFE00F01DFCFFF777FE20E75E
:104CA00011D04FF0E023D3F8F03DDC0700D500BE73
:104CB0000BB0BDE8F08F099B9DF821209DF81C00EA
:104CC00000F026FC0DE7534660E72E4800F00CFC90
:104CD0004046012108AAFFF763FC00287FF401AFDA
:104CE000A3E7202A00F08081002A97D19DF8213087
:104CF000092B93D801A252F823F000BF874F001070
:104D00006B4F00101D4C0010A94F00101D4C0010DF
:104D1000514F0010FF4E00101D4C0010E94E0010C6
:104D20001B4E00109DF8241011F0700F7FF476AF29
:104D3000124B01F07F06187805EB460303EBD11305
:104D40001B7DCF0983424FEA4606019753D340F0BB
:104D500068815746002A00F06881786900F0C4FB3A
:104D6000404601217B6908AA984700287FF4B9AE24
:104D70005BE700BF881B0020301B002021210020A2
:104D800023210020A1450010CC17002098690010B5
:104D9000601900209DF824300F2B3FF646AFAE4A35
:104DA0002B441B791278934230D37FF43EAF5546A3
:104DB000686900F099FB012140466B6908AA984791
:104DC00000287FF48EAE9DF8203013F060057FF44C
:104DD0002CAF9DF821300A3B012B3FF626AF00F0A7
:104DE00083FB9DF821300A2B00F0EE81404608A994
:104DF00000F0F0FA75E6DBF8007007EB4317002AC5
:104E000000F01381002F3FF410AFA6E7DBF800504D
:104E100015EB43153FF409AFCAE76B789DF82260A4
:104E20009E4200F04A816B78002B40F0BB816E708F
:104E3000002E00F04081701EC0B2FFF74FFA00282C
:104E400000F05C814378022B40F058812B78C279C6
:104E500023F03001C2F340131B01C2F3801243EA76
:104E600042130B432B70438800F10907C3180293C8
:104E7000CDF80C80029BBB4240F2A1817B780B2BCA
:104E800000F0AC814FF00108042B40F03781002680
:104E9000029B3946DA1B704B37461B78019692B25B
:104EA0001BE0DBF8006016EB471600F02781019B42
:104EB0000398013301933369CDE904129847DDE982
:104EC0000412082802D9824280F0FC80624B9DF8CF
:104ED00004701B78BB42C0F01181BB42A7EB0303F7
:104EE000DFD80AEB4316E2E76B7840468DF81A30BC
:104EF0000DF11A02012308A900F086FAF1E5BDF8C8
:104F00002200030A5A1EC0B20E2A3FF68EAE01A13D
:104F100051F822F02D510010C54F001069510010BA
:104F20002B4C00102B4C00104B510010C54F0010A3
:104F30002B4C00102B4C00102B4C00102B4C001055
:104F40002B4C00102B4C00102B4C00101F5100104C
:104F500008A800F0CFFA40469DF82210FFF796FB14
:104F60002B7843F002032B70BBE5BDF82230012BF8
:104F70007FF45BAE2B7840466FF3C30308A92B7018
:104F800000F028FAADE540462B789A0802F00202BC
:104F9000C3F340131343ADF81A300DF11A02022384
:104FA00008A900F031FA9CE5BDF82230012B7FF40E
:104FB0003CAE2B78404643F0080308A92B7000F064
:104FC00009FA8EE5022B00F00F81FFF7DBFC0246A9
:104FD00000283FF42AAE4046538808A900F014FA8E
:104FE00000287FF47EAD20E69DF824300F2B3FF69D
:104FF0001CAE194A2B441B791278934227D2DBF856
:10500000005015EB43153FF410AE686900F06CFAE0
:10501000404601216B6908AA984700287FF461ADDA
:1050200003E6002A7FF401AE00279DF8212002F05C
:10503000FD03012B12D0002A7FF4F0AD019B354413
:105040002B4493F834304046C3F34003A3E77FF486
:10505000ECAD5546D9E700BF21210020BDF8223034
:10506000ABB9012A00F0888099F80000FFF7CAFB6D
:10507000019AAB19134493F8342042F0020283F8EA
:10508000342093F8342042F0010283F83420002FBA
:105090003FF427AD786900F027FA7B69012108AA5F
:1050A00040469847002000F01FFA95F83530DE079B
:1050B0003FF517AD9AE6FFF769FC404608A900F0F6
:1050C00089F90EE5B8F1010F33463E460F4600F070
:1050D0009F80B8F1000F00F08E800023B97804E0C3
:1050E0001671DAB2904540F28680CA1855FA82F2FB
:1050F00092F804C00133BCF1FF0FF1D04FF0E02370
:10510000D3F8F03DDB0700D500BE4FF0E023D3F825
:10511000F03DDF0700D500BE00236B7085E5FFF78B
:105120003BFA024600287FF456AF7EE5FFF7D2F83F
:10513000024600283FF472AD4046122308A900F051
:1051400063F900287FF4CDAC6FE5FFF719FC024648
:1051500000283FF46AAD4046137808A900F054F9DE
:1051600000287FF4BEAC60E5BDF82410FFF7BAF864
:1051700002460028EFD158E599F800000293FFF7A6
:1051800059FB019BAA191A4492F83410029B63F34D
:10519000410182F8341092F8341063F3000182F870
:1051A000341074E700214046FFF778FA4046FFF7D5
:1051B00013FBAF784046FFF799FBAF7037E6DDF899
:1051C0000C80FFF7E1FB78E74046012308A90DF1C9
:1051D0001A028DF81A5000F017F982E43B7897F81C
:1051E00003801F447B784FE6FFF778F802460028DB
:1051F0007FF4F1AE12E539460246334607440C48C7
:1052000000F08CFD0B4B1B78B342BFF433AE75E757
:105210001B69094A934208BF4FF002085DE74FF04F
:10522000E023D3F8F03DDB077FF55BAC00BE58E42C
:10523000441B002021210020315900102DE9F84F96
:105240000A9F002A40D00C461E4615464FF0000A21
:10525000DFF87C90DFF87C8018E0204698F8021098
:1052600099F800B000F026FDE0B121465846FFF75E
:1052700031FAF0B1A2780AF1010AD30916BF0B9BEB
:105280003A701A702278AA4514441DD06278052A13
:105290000FD1E17801F00301B1420AD1A27812F0F6
:1052A000700FDAD04FF0E023D3F8F03DDA0700D5E5
:1052B00000BE4FF0E023D3F8F03DDB0702D400201E
:1052C000BDE8F88F00BEFAE70120BDE8F88F00BF07
:1052D000CC170020301B002038B58B7813F0700FEE
:1052E00008D04FF0E023D3F8F03DDB0700D500BE37
:1052F000002038BD074A084B0C46084691781D78B7
:1053000000F0D8FC0028ECD021462846BDE8384003
:10531000FFF7E0B9301B0020CC1700200B46064AEF
:1053200006481168DA09343203F07F0302EB4303C5
:10533000184400F079BC00BF841B0020301B002003
:105340000B46064A06481168DA09343203F07F0337
:1053500002EB4303184400F091BC00BF841B002003
:10536000301B002010B5194C01F07F0C04EB4C04ED
:1053700004EBD11090F834C01CF0010F08D04FF0AE
:10538000E023D3F8F03DDA0700D500BE002010BDC1
:1053900090F834C000F130040D484CF0010C007856
:1053A00084F804C0FFF71AFA0028F0D14FF0E02289
:1053B000237960F300032371237960F3820323715F
:1053C000D2F8F03DDB07E1D500BE10BD301B002058
:1053D000CC17002030B50B4C8C46A6460023054662
:1053E000086849681A46AEE803009CF90010284690
:1053F0009942C4E90233BDE83040ACBF8021194670
:10540000FFF7B0BFF01A00202DE9F0412F4F4FF009
:105410000008BE468C46064608684968BA60AEE891
:105420000300A7F80E80BCF8065082B0AB4228BF3C
:105430002B46BB819DB14BB314467AB397F900203C
:10544000402B28BF4023002A32DB4146204A304609
:10545000FFF788FF80B1012002B0BDE8F0819CF920
:1054600000202B46002AACBF802100212A4630466E
:10547000FFF778FF0028EED14FF0E023D3F8F03D9E
:10548000DB0711D500BE02B0BDE8F08197F900102E
:105490001A460029ACBF19468021D8E74FF0E02317
:1054A000D3F8F03DDA070DD4002002B0BDE8F0815A
:1054B0001A4621460648019300F092FF8021044AD3
:1054C000019BC4E700BE2046C6E700BFF01A0020DB
:1054D000B01A00200022034BC3E90022C3E90222D4
:1054E0001A617047F01A0020014B1861704700BF25
:1054F000F01A002030B40246044C00252346006810
:105500005168C4E9025530BC03C37047F01A00204B
:1055100070B5414CC90922780546B1EBD21F1E4631
:1055200082B021D04BB14FF0E023D3F8F03DDA0741
:1055300000D500BE002002B070BD2146FFF7BCF8C8
:10554000236973B12246032128469847012002B0FF
:1055500070BD01462846FFF755F980212846FFF720
:1055600051F9012002B070BD94F90020002A06DB39
:10557000A0680028DED01A46284900F031FFE089F3
:10558000A168E288304480B231448242E081A16067
:1055900016D03F2E14D9A28994F90040131A9BB259
:1055A000402B28BF4023002C27DB90424FF0000106
:1055B0002FD01A4A2846FFF7D5FE0028D1D114E093
:1055C00023692BB102212846134A98470028C0D0EE
:1055D000002394F9002028469A42ACBF8021194646
:1055E0001A46FFF7BFFE0028BBD14FF0E023D3F8E7
:1055F000F03DDB079ED500BE9DE7904208D01A46DD
:105600000648019300F0ECFE8021044A019BD1E79B
:1056100080210022CEE700BFF01A0020B01A00203F
:105620002DE9F0410446FFF7B7F908B9BDE8F0816C
:10563000FFF7BAF907460028F8D1C825144B05FB37
:105640000436F278002AF1D005FB043303F110058B
:10565000284600F0DBFB3F28E8D93846F178FFF711
:105660005DFE0028E2D0284600F0D0FB3F2809D993
:10567000084A3846F17802EBC4124023BDE8F041F5
:10568000FFF770BE3846F178BDE8F041FFF758BE2D
:10569000E81900206419002010B50446FFF77CF9D2
:1056A00008B9002010BDFFF77FF90028F9D1C82301
:1056B000034803FB0400007900F0010010BD00BFA7
:1056C000E8190020C82208B5034B02FB0030103057
:1056D00000F082FB08BD00BFE81900202DE9F84367
:1056E0004FF6FE744FF6FF734FF0C808A24298BF02
:1056F00013461C4E044608FB0065103528469AB236
:1057000000F0E0FB0746FFF747F910B93846BDE85F
:10571000F883FFF749F981460028F7D108FB0466B2
:10572000F378002BF2D0284600F070FB3F28EDD92B
:105730004846F178FFF7F2FD0028E7D0284600F050
:1057400065FB3F2808D9084A48464023F17802EB18
:10575000C412FFF707FED9E74846F178FFF7F0FDDE
:10576000D4E700BFE8190020641900202DE9F041BA
:105770000546FFF711F910B90020BDE8F081FFF7E9
:1057800013F907460028F7D14FF0C808174E08FB59
:1057900005642434204600F01FFB0028ECD008FBF1
:1057A00005663846B178FFF7B9FD0028E4D04022FD
:1057B0000F4902EBC5150D442046294600F082FB37
:1057C000044670B103462A463846B178FFF7CAFD51
:1057D00050B94FF0E023D3F8F03DDB07CCD500BE45
:1057E000CBE7B178FFF7ACFD2046C6E7E81900200B
:1057F0006419002038B54FF6FE754FF6FF734FF071
:10580000C80CAA4298BF13460B4C9AB20CFB00443A
:1058100024340546204600F001FC034620461C4681
:1058200000F0DAFA3F2801D8204638BD2846FFF7B5
:105830009DFF204638BD00BFE8190020C82208B5EA
:10584000034B02FB0030243000F0E0FA08BD00BF3B
:10585000E8190020F0B50025184C83B02946C8226D
:10586000204600F07DFDFF234FF4E131082214486B
:1058700063710570A160A27304F138010123402215
:10588000009504F1100000F075FA0123402204F1A4
:105890007801009304F1B80704F1240000F06AFADB
:1058A00004F1C0063846FBF76BFC3046FBF768FC9A
:1058B000C4E90757C4E90C6503B0F0BDE81900203E
:1058C000E4190020064B1A6A196B12B10022C3E9D1
:1058D000072211B10022C3E90C220120704700BF4A
:1058E000E8190020002210B50E4C0F482378026002
:1058F0000271DA0707D59B070BD5BDE810400121DF
:105900000A4800F055BC103000F036FC23789B07A5
:10591000F3D4064800F030FCBDE8104001210348F4
:1059200000F046BCE4190020E81900200C1A002001
:10593000F0B54B7983B0022B02D18B79022B03D0C7
:105940000025284603B0F0BD264FBB783BB14FF091
:10595000E023D3F8F03DDB07F2D500BEF0E78B780B
:1059600006463B700C7809250C44617824290BD13C
:10597000082A02D80FE0AA420DD323781C4461788C
:105980002B4424299DB2F6D005290AD0042902D13E
:1059900063790A2B13D00020FFF742FE284603B09C
:1059A000F0BD21463046FFF797FC0028CFD0A37802
:1059B0007B7023781C442B4461789DB2E6E70A4B48
:1059C0002778019301330093022330461A46E119E8
:1059D000FFF734FC0028BAD005F10E0317FA83F361
:1059E0009DB2D8E7E8190020EA190020137803F0E7
:1059F0006003202B08D170B5284C938894F800C020
:105A00009C4503D0002070BD002070475378203B98
:105A1000032BF7D8DFE803F028240D02012930D04A
:105A200003291FD11E4BEBB10020518800E000BFBD
:105A300018E0012925D0032914D15588194805F00B
:105A4000010686F00101257100F0B2FB164B4BB147
:105A500031460020C5F3400200E000BF012070BDC8
:105A6000012913D0012070BD01290FD00329F9D1DC
:105A70000E4B002BF6D000200D49FEF7ADFD0120A6
:105A800070BD1146FFF7A6FC012070BD114607232B
:105A9000074AFFF7B9FC012070BD00BFE8190020DC
:105AA000000000000C1A002000000000D945001082
:105AB000F01900202DE9F047374D0C46EA780746EB
:105AC0008A421E4655D1DFF8E8809AB2414605F178
:105AD000100000F0A3FA314BC3B16B79FF2B15D046
